{
    "contractName": "Complaint",
    "abi": [
        {
            "inputs": [],
            "stateMutability": "nonpayable",
            "type": "constructor"
        },
        {
            "anonymous": false,
            "inputs": [
                {
                    "indexed": false,
                    "internalType": "address",
                    "name": "",
                    "type": "address"
                },
                {
                    "indexed": false,
                    "internalType": "string",
                    "name": "",
                    "type": "string"
                }
            ],
            "name": "ComplaintRegistered",
            "type": "event"
        },
        {
            "anonymous": false,
            "inputs": [
                {
                    "indexed": false,
                    "internalType": "address",
                    "name": "",
                    "type": "address"
                }
            ],
            "name": "ComplaintUpdated",
            "type": "event"
        },
        {
            "anonymous": false,
            "inputs": [
                {
                    "indexed": false,
                    "internalType": "address",
                    "name": "",
                    "type": "address"
                },
                {
                    "indexed": false,
                    "internalType": "uint256",
                    "name": "",
                    "type": "uint256"
                }
            ],
            "name": "ReponseAdded",
            "type": "event"
        },
        {
            "inputs": [],
            "name": "LastRespondedComplaint",
            "outputs": [
                {
                    "internalType": "uint256",
                    "name": "",
                    "type": "uint256"
                }
            ],
            "stateMutability": "view",
            "type": "function"
        },
        {
            "inputs": [
                {
                    "internalType": "string",
                    "name": "_name",
                    "type": "string"
                },
                {
                    "internalType": "string",
                    "name": "_email",
                    "type": "string"
                },
                {
                    "internalType": "string",
                    "name": "_addr",
                    "type": "string"
                },
                {
                    "internalType": "uint256",
                    "name": "_mobile",
                    "type": "uint256"
                },
                {
                    "internalType": "string",
                    "name": "_description",
                    "type": "string"
                }
            ],
            "name": "Register",
            "outputs": [],
            "stateMutability": "nonpayable",
            "type": "function"
        },
        {
            "inputs": [
                {
                    "internalType": "uint256",
                    "name": "_count",
                    "type": "uint256"
                },
                {
                    "internalType": "string",
                    "name": "_response",
                    "type": "string"
                }
            ],
            "name": "Respond",
            "outputs": [],
            "stateMutability": "nonpayable",
            "type": "function"
        },
        {
            "inputs": [
                {
                    "internalType": "address",
                    "name": "_address",
                    "type": "address"
                }
            ],
            "name": "Search",
            "outputs": [
                {
                    "components": [
                        {
                            "internalType": "uint256",
                            "name": "id",
                            "type": "uint256"
                        },
                        {
                            "internalType": "string",
                            "name": "name",
                            "type": "string"
                        },
                        {
                            "internalType": "string",
                            "name": "email",
                            "type": "string"
                        },
                        {
                            "internalType": "string",
                            "name": "addr",
                            "type": "string"
                        },
                        {
                            "internalType": "uint256",
                            "name": "mobile",
                            "type": "uint256"
                        },
                        {
                            "internalType": "address",
                            "name": "wallet",
                            "type": "address"
                        },
                        {
                            "internalType": "string",
                            "name": "description",
                            "type": "string"
                        },
                        {
                            "internalType": "uint256",
                            "name": "time",
                            "type": "uint256"
                        },
                        {
                            "internalType": "string",
                            "name": "repsonse",
                            "type": "string"
                        },
                        {
                            "internalType": "uint256",
                            "name": "repsonse_time",
                            "type": "uint256"
                        },
                        {
                            "internalType": "bool",
                            "name": "status",
                            "type": "bool"
                        }
                    ],
                    "internalType": "struct Complaint.complaint",
                    "name": "",
                    "type": "tuple"
                }
            ],
            "stateMutability": "view",
            "type": "function"
        },
        {
            "inputs": [],
            "name": "TotalCompalints",
            "outputs": [
                {
                    "internalType": "uint256",
                    "name": "",
                    "type": "uint256"
                }
            ],
            "stateMutability": "view",
            "type": "function"
        },
        {
            "inputs": [],
            "name": "TotalRespondedComplaints",
            "outputs": [
                {
                    "internalType": "uint256",
                    "name": "",
                    "type": "uint256"
                }
            ],
            "stateMutability": "view",
            "type": "function"
        },
        {
            "inputs": [],
            "name": "TotalStatusUpdate",
            "outputs": [
                {
                    "internalType": "uint256",
                    "name": "",
                    "type": "uint256"
                }
            ],
            "stateMutability": "view",
            "type": "function"
        },
        {
            "inputs": [
                {
                    "internalType": "address",
                    "name": "_newOwner",
                    "type": "address"
                }
            ],
            "name": "TransferOwner",
            "outputs": [],
            "stateMutability": "nonpayable",
            "type": "function"
        },
        {
            "inputs": [],
            "name": "UpdateStatus",
            "outputs": [],
            "stateMutability": "nonpayable",
            "type": "function"
        },
        {
            "inputs": [
                {
                    "internalType": "uint256",
                    "name": "_count",
                    "type": "uint256"
                }
            ],
            "name": "getComplaint",
            "outputs": [
                {
                    "components": [
                        {
                            "internalType": "uint256",
                            "name": "id",
                            "type": "uint256"
                        },
                        {
                            "internalType": "string",
                            "name": "name",
                            "type": "string"
                        },
                        {
                            "internalType": "string",
                            "name": "email",
                            "type": "string"
                        },
                        {
                            "internalType": "string",
                            "name": "addr",
                            "type": "string"
                        },
                        {
                            "internalType": "uint256",
                            "name": "mobile",
                            "type": "uint256"
                        },
                        {
                            "internalType": "address",
                            "name": "wallet",
                            "type": "address"
                        },
                        {
                            "internalType": "string",
                            "name": "description",
                            "type": "string"
                        },
                        {
                            "internalType": "uint256",
                            "name": "time",
                            "type": "uint256"
                        },
                        {
                            "internalType": "string",
                            "name": "repsonse",
                            "type": "string"
                        },
                        {
                            "internalType": "uint256",
                            "name": "repsonse_time",
                            "type": "uint256"
                        },
                        {
                            "internalType": "bool",
                            "name": "status",
                            "type": "bool"
                        }
                    ],
                    "internalType": "struct Complaint.complaint",
                    "name": "",
                    "type": "tuple"
                }
            ],
            "stateMutability": "view",
            "type": "function"
        },
        {
            "inputs": [],
            "name": "owner",
            "outputs": [
                {
                    "internalType": "address",
                    "name": "",
                    "type": "address"
                }
            ],
            "stateMutability": "view",
            "type": "function"
        }
    ],
    "bytecode": "608060405234801561001057600080fd5b50600080546001600160a01b03191633179055600180556112b3806100366000396000f3fe608060405234801561001057600080fd5b50600436106100a95760003560e01c8063858ac4d811610071578063858ac4d8146100fd5780638da5cb5b1461011257806395e5b16f1461013d578063be51455e14610150578063dee8ae4314610163578063f1a4f7af1461017657600080fd5b80630b5c3fc7146100ae578063194cd383146100c557806354eb1065146100cd5780636b5fda89146100d55780636c0d2a4e146100dd575b600080fd5b6002545b6040519081526020015b60405180910390f35b6003546100b2565b6004546100b2565b6100b261017e565b6100f06100eb366004610d0b565b610193565b6040516100bc9190610d81565b61011061010b366004610d0b565b6104ee565b005b600054610125906001600160a01b031681565b6040516001600160a01b0390911681526020016100bc565b61011061014b366004610ecd565b6105a7565b61011061015e366004610f19565b610725565b6100f0610171366004610fe9565b610bb9565b610110610bfa565b60006001805461018e9190611018565b905090565b61019b610ca6565b6001600160a01b038216600090815260056020908152604091829020825161016081019093528054835260018101805491928401916101d990611031565b80601f016020809104026020016040519081016040528092919081815260200182805461020590611031565b80156102525780601f1061022757610100808354040283529160200191610252565b820191906000526020600020905b81548152906001019060200180831161023557829003601f168201915b5050505050815260200160028201805461026b90611031565b80601f016020809104026020016040519081016040528092919081815260200182805461029790611031565b80156102e45780601f106102b9576101008083540402835291602001916102e4565b820191906000526020600020905b8154815290600101906020018083116102c757829003601f168201915b505050505081526020016003820180546102fd90611031565b80601f016020809104026020016040519081016040528092919081815260200182805461032990611031565b80156103765780601f1061034b57610100808354040283529160200191610376565b820191906000526020600020905b81548152906001019060200180831161035957829003601f168201915b50505091835250506004820154602082015260058201546001600160a01b031660408201526006820180546060909201916103b090611031565b80601f01602080910402602001604051908101604052809291908181526020018280546103dc90611031565b80156104295780601f106103fe57610100808354040283529160200191610429565b820191906000526020600020905b81548152906001019060200180831161040c57829003601f168201915b505050505081526020016007820154815260200160088201805461044c90611031565b80601f016020809104026020016040519081016040528092919081815260200182805461047890611031565b80156104c55780601f1061049a576101008083540402835291602001916104c5565b820191906000526020600020905b8154815290600101906020018083116104a857829003601f168201915b505050918352505060098201546020820152600a9091015460ff16151560409091015292915050565b6000546001600160a01b0316331461053d5760405162461bcd60e51b815260206004820152600d60248201526c2737ba103a34329037bbb732b960991b60448201526064015b60405180910390fd5b6001600160a01b0381166105855760405162461bcd60e51b815260206004820152600f60248201526e496e76616c6964206164647265737360881b6044820152606401610534565b600080546001600160a01b0319166001600160a01b0392909216919091179055565b6000546001600160a01b031633146105f15760405162461bcd60e51b815260206004820152600d60248201526c2737ba103a34329037bbb732b960991b6044820152606401610534565b6001831015801561060f57506001805461060b9190611018565b8311155b61064b5760405162461bcd60e51b815260206004820152600d60248201526c125b9d985b1a590810dbdd5b9d609a1b6044820152606401610534565b60008381526006602052604090206008016106678284836110d0565b50600083815260066020908152604080832042600982015560028790556005908101546001600160a01b031680855292529091206008016106a98385836110d0565b506001600160a01b038116600090815260056020526040812042600990910155600380549091906106d990611191565b90915550604080516001600160a01b0383168152602081018690527f779f4bfa4e183d9fff2f9e039f32287bd297e4826e7b5ba3e3bcb751dd3bba54910160405180910390a150505050565b60405180610160016040528060015481526020018a8a8080601f016020809104026020016040519081016040528093929190818152602001838380828437600092019190915250505090825250604080516020601f8b0181900481028201810190925289815291810191908a908a9081908401838280828437600092019190915250505090825250604080516020601f8901819004810282018101909252878152918101919088908890819084018382808284376000920191909152505050908252506020808201869052336040808401919091528051601f86018390048302810183019091528481526060909201919085908590819084018382808284376000920182905250938552505042602080850191909152604080518083018252848152818601526060850184905260809094018390523383526005815292909120835181559183015160018301915061087d90826111aa565b506040820151600282019061089290826111aa565b50606082015160038201906108a790826111aa565b506080820151600482015560a08201516005820180546001600160a01b0319166001600160a01b0390921691909117905560c082015160068201906108ec90826111aa565b5060e08201516007820155610100820151600882019061090c90826111aa565b50610120820151600982015561014090910151600a909101805460ff19169115159190911790556040805161016081018252600154815281516020601f8c018190048102820181019093528a8152909180830191908c908c9081908401838280828437600092019190915250505090825250604080516020601f8b0181900481028201810190925289815291810191908a908a9081908401838280828437600092019190915250505090825250604080516020601f8901819004810282018101909252878152918101919088908890819084018382808284376000920191909152505050908252506020808201869052336040808401919091528051601f8601839004830281018301909152848152606090920191908590859081908401838280828437600092018290525093855250504260208085019190915260408051808301825284815281860152606085018490526080909401839052600180548452600682529390922084518155918401519192830191610a8c9150826111aa565b5060408201516002820190610aa190826111aa565b5060608201516003820190610ab690826111aa565b506080820151600482015560a08201516005820180546001600160a01b0319166001600160a01b0390921691909117905560c08201516006820190610afb90826111aa565b5060e082015160078201556101008201516008820190610b1b90826111aa565b50610120820151600982015561014090910151600a909101805460ff191691151591909117905560018054610b4f9161126a565b60015560408051338152602081018290526013818301527210dbdb5c1b185a5b9d08149959da5cdd195c99606a1b606082015290517f45e888f68aba9c0869a36357b63a9b3fab919443b029434998fca5281d7d40e99181900360800190a1505050505050505050565b610bc1610ca6565b6006600083815260200190815260200160002060405180610160016040529081600082015481526020016001820180546101d990611031565b336000908152600560205260408120600a015460ff1615159003610c2c57600460008154610c2790611191565b909155505b336000818152600560209081526040808320600a808201805460ff8082161560ff199283161790925592548087526006865295849020909101805491821615919092161790555192835290917f36c4caef98d9fd1ccf3e3c27bc7686780826a2b9decd62d5c308d9ac5f2947f5910160405180910390a150565b604051806101600160405280600081526020016060815260200160608152602001606081526020016000815260200160006001600160a01b03168152602001606081526020016000815260200160608152602001600081526020016000151581525090565b600060208284031215610d1d57600080fd5b81356001600160a01b0381168114610d3457600080fd5b9392505050565b6000815180845260005b81811015610d6157602081850181015186830182015201610d45565b506000602082860101526020601f19601f83011685010191505092915050565b602081528151602082015260006020830151610160806040850152610daa610180850183610d3b565b91506040850151601f1980868503016060870152610dc88483610d3b565b93506060870151915080868503016080870152610de58483610d3b565b9350608087015160a087015260a08701519150610e0d60c08701836001600160a01b03169052565b60c08701519150808685030160e0870152610e288483610d3b565b935060e08701519150610100828188015280880151925050610120818786030181880152610e568584610d3b565b9088015161014088810191909152880151801515858901529094509150610e7a9050565b5090949350505050565b60008083601f840112610e9657600080fd5b50813567ffffffffffffffff811115610eae57600080fd5b602083019150836020828501011115610ec657600080fd5b9250929050565b600080600060408486031215610ee257600080fd5b83359250602084013567ffffffffffffffff811115610f0057600080fd5b610f0c86828701610e84565b9497909650939450505050565b600080600080600080600080600060a08a8c031215610f3757600080fd5b893567ffffffffffffffff80821115610f4f57600080fd5b610f5b8d838e01610e84565b909b50995060208c0135915080821115610f7457600080fd5b610f808d838e01610e84565b909950975060408c0135915080821115610f9957600080fd5b610fa58d838e01610e84565b909750955060608c0135945060808c0135915080821115610fc557600080fd5b50610fd28c828d01610e84565b915080935050809150509295985092959850929598565b600060208284031215610ffb57600080fd5b5035919050565b634e487b7160e01b600052601160045260246000fd5b8181038181111561102b5761102b611002565b92915050565b600181811c9082168061104557607f821691505b60208210810361106557634e487b7160e01b600052602260045260246000fd5b50919050565b634e487b7160e01b600052604160045260246000fd5b601f8211156110cb57600081815260208120601f850160051c810160208610156110a85750805b601f850160051c820191505b818110156110c7578281556001016110b4565b5050505b505050565b67ffffffffffffffff8311156110e8576110e861106b565b6110fc836110f68354611031565b83611081565b6000601f84116001811461113057600085156111185750838201355b600019600387901b1c1916600186901b17835561118a565b600083815260209020601f19861690835b828110156111615786850135825560209485019460019092019101611141565b508682101561117e5760001960f88860031b161c19848701351681555b505060018560011b0183555b5050505050565b6000600182016111a3576111a3611002565b5060010190565b815167ffffffffffffffff8111156111c4576111c461106b565b6111d8816111d28454611031565b84611081565b602080601f83116001811461120d57600084156111f55750858301515b600019600386901b1c1916600185901b1785556110c7565b600085815260208120601f198616915b8281101561123c5788860151825594840194600190910190840161121d565b508582101561125a5787850151600019600388901b60f8161c191681555b5050505050600190811b01905550565b8082018082111561102b5761102b61100256fea2646970667358221220fbf972ff0acfedbe6ba91dbf9f8eaf6a9f9a68e0cd93e2a39c60a295acdc9bae64736f6c63430008130033",
    "sourcePath": "/home/ni8w4lk3r/workspace/clg-project/Blockcomplaint/contract-v2/src/Contract.sol",
    "compiler": {
        "name": "solc",
        "version": "0.8.19+commit.7dd6d404"
    },
    "functionHashes": {
        "LastRespondedComplaint()": "0b5c3fc7",
        "Register(string,string,string,uint256,string)": "be51455e",
        "Respond(uint256,string)": "95e5b16f",
        "Search(address)": "6c0d2a4e",
        "TotalCompalints()": "6b5fda89",
        "TotalRespondedComplaints()": "194cd383",
        "TotalStatusUpdate()": "54eb1065",
        "TransferOwner(address)": "858ac4d8",
        "UpdateStatus()": "f1a4f7af",
        "getComplaint(uint256)": "dee8ae43",
        "owner()": "8da5cb5b"
    },
    "gasEstimates": {
        "creation": {
            "codeDepositCost": "957400",
            "executionCost": "47335",
            "totalCost": "1004735"
        },
        "external": {
            "LastRespondedComplaint()": "2271",
            "Register(string,string,string,uint256,string)": "infinite",
            "Respond(uint256,string)": "infinite",
            "Search(address)": "infinite",
            "TotalCompalints()": "2449",
            "TotalRespondedComplaints()": "2304",
            "TotalStatusUpdate()": "2326",
            "TransferOwner(address)": "26711",
            "UpdateStatus()": "78551",
            "getComplaint(uint256)": "infinite",
            "owner()": "2359"
        }
    }
}